:020000040008F2
:04000000004819F8A3
:200004007622761F17E01A2400011A2000031A20000C761F17E61800FFFD1800FFFE761FA6
:20001400174892089003610992089003520261059208900352036009761F17E0CC00F0FFBD
:200024001AA9050096006F08761F17E0CC00F0FF1AA904009600761F17E61A0000021A007B
:200034000001761F17ECCC00FFF0500A9600761AF6077700FF6900067622761F17E018209A
:20004400FFFC1820FFF31824FFFE761AFF690006190156C3FFFF0006190156C3FFFF0006D2
:20005400FE0497449643A84276222901C4428F000D0056030143560100A4C2C4761AFF6972
:20006400FE840006FE0296415201610B5280680408A9FF806F029CE0FFC29C0152016022D0
:2000740092415280680708A9FF8090079C082DA96F049CE090072DA99A01761F0033FF66F3
:20008400982292415280680408A9FF806F029CE0FFC22DA99A01FF6620A8CAA823A9FFEFE9
:20009400020A92415202610B5280680408A9FF806F029CE0FFC29C01520260229241528079
:2000A400680708A9FF8090079C082DA96F049CE090072DA99A01761F0033FF6698249241D9
:2000B4005280680408A9FF806F029CE0FFC22DA99A01FF6620A8CAA823A9FFEF01DC924196
:2000C4005203610B5280680408A9FF806F029CE0FFC29C015203602292415280680708A906
:2000D400FF8090079C082DA96F049CE090072DA99A01761F0033FF66982692415280680489
:2000E40008A9FF806F029CE0FFC22DA99A01FF6620A8CAA823A9FFEF01AE92415204610B10
:2000F4005280680408A9FF806F029CE0FFC29C015204602292415280680708A9FF80900780
:200104009C082DA96F049CE090072DA99A01761F0033FF66982892415280680408A9FF803C
:200114006F029CE0FFC22DA99A01FF6620A8CAA823A9FFEF018092415205610B52806804FE
:2001240008A9FF806F029CE0FFC29C015205602292415280680708A9FF8090079C082DA912
:200134006F049CE090072DA99A01761F0033FF66982A92415280680408A9FF806F029CE097
:20014400FFC22DA99A01FF6620A8CAA823A9FFEF015292415206610B5280680408A9FF80B8
:200154006F029CE0FFC29C015206602292415280680708A9FF8090079C082DA96F049CE022
:2001640090072DA99A01761F0033FF66982C92415280680408A9FF806F029CE0FFC22DA9BD
:200174009A01FF6620A8CAA823A9FFEF012492415207610B5280680408A9FF806F029CE05F
:20018400FFC29C015207602292415280680708A9FF8090079C082DA96F049CE090072DA971
:200194009A01761F0033FF66982E92415280680408A9FF806F029CE0FFC22DA99A01FF66F8
:2001A40020A8CAA823A9FFEF00F692415208610B5280680408A9FF806F029CE0FFC29C01FF
:2001B4005208602292415280680708A9FF8090079C082DA96F049CE090072DA99A01761F6E
:2001C4000033FF66983092415280680408A9FF806F029CE0FFC22DA99A01FF6620A8CAA8BC
:2001D40023A9FFEF00C892415209610B5280680408A9FF806F029CE0FFC29C015209602259
:2001E40092415280680708A9FF8090079C082DA96F049CE090072DA99A01761F0033FF6682
:2001F400983292415280680408A9FF806F029CE0FFC22DA99A01FF6620A8CAA823A9FFEF68
:20020400009A9241520A610B5280680408A9FF806F029CE0FFC29C01520A6021924152806A
:20021400680708A9FF8090079C082DA96F049CE090072DA99A01761F0033FF669834924157
:200224005280680408A9FF806F029CE0FFC22DA99A01FF6620A8CAA823A96F6C9241520BB7
:20023400610B5280680408A9FF806F029CE0FFC29C01520B602192415280680708A9FF8063
:2002440090079C082DA96F049CE090072DA99A01761F0033FF66983692415280680408A9D5
:20025400FF806F029CE0FFC22DA99A01FF6620A8CAA823A96F3F9241520C610B52806804F8
:2002640008A9FF806F029CE0FFC29C01520C602192415280680708A9FF8090079C082DA9CB
:200274006F049CE090072DA99A01761F0033FF66983892415280680408A9FF806F029CE048
:20028400FFC22DA99A01FF6620A8CAA823A96F129241520D610F520E610D520F610B52109D
:200294006109521161075212610552136803521F6601FE820006FE0296415201610B5280B5
:2002A400680408A9FF806F029CE0FFC29C015201602492415280680708A9FF8090079C08FD
:2002B4002DA96F049CE090072DA99A01761F0033FF66FF5EC02292415280680408A9FF80B0
:2002C4006F029CE0FFC22DA99A01FF66FF5E20A8CEA823A9FFEF021F92415202610B5280BB
:2002D400680408A9FF806F029CE0FFC29C015202602492415280680708A9FF8090079C08CC
:2002E4002DA96F049CE090072DA99A01761F0033FF66FF5EC02492415280680408A9FF807E
:2002F4006F029CE0FFC22DA99A01FF66FF5E20A8CEA823A9FFEF01EF92415203610B5280BB
:20030400680408A9FF806F029CE0FFC29C015203602492415280680708A9FF8090079C089A
:200314002DA96F049CE090072DA99A01761F0033FF66FF5EC02692415280680408A9FF804B
:200324006F029CE0FFC22DA99A01FF66FF5E20A8CEA823A9FFEF01BF92415204610B5280B9
:20033400680408A9FF806F029CE0FFC29C015204602492415280680708A9FF8090079C0869
:200344002DA96F049CE090072DA99A01761F0033FF66FF5EC02892415280680408A9FF8019
:200354006F029CE0FFC22DA99A01FF66FF5E20A8CEA823A9FFEF018F92415205610B5280B8
:20036400680408A9FF806F029CE0FFC29C015205602492415280680708A9FF8090079C0838
:200374002DA96F049CE090072DA99A01761F0033FF66FF5EC02A92415280680408A9FF80E7
:200384006F029CE0FFC22DA99A01FF66FF5E20A8CEA823A9FFEF015F92415206610B5280B7
:20039400680408A9FF806F029CE0FFC29C015206602392415280680708A9FF8090079C0808
:2003A4002DA96F049CE090072DA99A01761F0033FF66FF5EC02C92415280680408A9FF80B5
:2003B4006F029CE0FFC22DA99A01FF6620A8CAA823A9FFEF013092415207610B52806804AA
:2003C40008A9FF806F029CE0FFC29C015207602492415280680708A9FF8090079C082DA96C
:2003D4006F049CE090072DA99A01761F0033FF66FF5EC02E92415280680408A9FF806F02E8
:2003E4009CE0FFC22DA99A01FF66FF5E20A8CEA823A9FFEF010092415208610B52806804B9
:2003F40008A9FF806F029CE0FFC29C015208602492415280680708A9FF8090079C082DA93B
:200404006F049CE090072DA99A01761F0033FF66FF5EC03092415280680408A9FF806F02B5
:200414009CE0FFC22DA99A01FF66FF5E20A8CEA823A9FFEF00D092415209610B52806804B8
:2004240008A9FF806F029CE0FFC29C015209602492415280680708A9FF8090079C082DA909
:200434006F049CE090072DA99A01761F0033FF66FF5EC03292415280680408A9FF806F0283
:200444009CE0FFC22DA99A01FF66FF5E20A8CEA823A9FFEF00A09241520A610B52806804B7
:2004540008A9FF806F029CE0FFC29C01520A602392415280680708A9FF8090079C082DA9D9
:200464006F049CE090072DA99A01761F0033FF66FF5EC03492415280680408A9FF806F0251
:200474009CE0FFC22DA99A01FF66FF5E20A8CEA823A96F709241520B610B5280680408A984
:20048400FF806F029CE0FFC29C01520B602392415280680708A9FF8090079C082DA96F04E6
:200494009CE090072DA99A01761F0033FF66FF5EC03692415280680408A9FF806F029CE016
:2004A400FFC22DA99A01FF66FF5E20A8CEA823A96F419241520C610B5280680408A9FF807F
:2004B4006F029CE0FFC29C01520C602392415280680708A9FF8090079C082DA96F049CE0B8
:2004C40090072DA99A01761F0033FF66FF5EC03892415280680408A9FF806F029CE0FFC29F
:2004D4002DA99A01FF66FF5E20A8CEA823A96F129241520D610F520E610D520F610B5210AB
:2004E4006109521161075212610552136803521F6601FE820006FE0296415201610B528063
:2004F400680408A9FF806F029CE0FFC29C015201601692415280680708A9FF8090079C08B9
:200504002DA96F049CE090072DA99A01761F0033FF669823F6017700FFEF01859241520219
:20051400610B5280680408A9FF806F029CE0FFC29C015202601692415280680708A9FF8094
:2005240090079C082DA96F049CE090072DA99A01761F0033FF669825F6017700FFEF016305
:2005340092415203610B5280680408A9FF806F029CE0FFC29C01520360169241528068077B
:2005440008A9FF8090079C082DA96F049CE090072DA99A01761F0033FF669827F601770005
:20055400FFEF014192415204610B5280680408A9FF806F029CE0FFC29C015204601692416A
:200564005280680708A9FF8090079C082DA96F049CE090072DA99A01761F0033FF66982910
:20057400F6017700FFEF011F92415205610B5280680408A9FF806F029CE0FFC29C01520545
:20058400601692415280680708A9FF8090079C082DA96F049CE090072DA99A01761F0033CD
:20059400FF66982BF6017700FFEF00FD92415206610B5280680408A9FF806F029CE0FFC213
:2005A4009C015206601692415280680708A9FF8090079C082DA96F049CE090072DA99A0180
:2005B400761F0033FF66982DF6017700FFEF00DB92415207610B5280680408A9FF806F0287
:2005C4009CE0FFC29C015207601692415280680708A9FF8090079C082DA96F049CE0900793
:2005D4002DA99A01761F0033FF66982FF6017700FFEF00B992415208610B5280680408A905
:2005E400FF806F029CE0FFC29C015208601692415280680708A9FF8090079C082DA96F0495
:2005F4009CE090072DA99A01761F0033FF669831F6017700FFEF009792415209610B52800E
:20060400680408A9FF806F029CE0FFC29C015209601592415280680708A9FF8090079C08A0
:200614002DA96F049CE090072DA99A01761F0033FF669833F60177006F759241520A610B14
:200624005280680408A9FF806F029CE0FFC29C01520A601592415280680708A9FF80900751
:200634009C082DA96F049CE090072DA99A01761F0033FF669835F60177006F549241520BDA
:20064400610B5280680408A9FF806F029CE0FFC29C01520B601592415280680708A9FF805B
:2006540090079C082DA96F049CE090072DA99A01761F0033FF669837F60177006F3392419F
:20066400520C610B5280680408A9FF806F029CE0FFC29C01520C601592415280680708A95B
:20067400FF8090079C082DA96F049CE090072DA99A01761F0033FF669839F60177006F12F2
:200684009241520D610F520E610D520F610B52106109521161075212610552136803521F77
:200694006601FE82FF690006FE0296415280680408A9FF806F029CE0FFC29C0196429241B6
:2006A4006103520C69059242610B520C66099242761F00339CFF2DA99A01FF669621FE82B5
:2006B4000006761BFFF0E20000BDE63006002942561676256F00761BFFF0E20000BDE630CF
:2006C40006002942561676256F00761BFFF0E20000BDE63006002942561676256F00761B82
:2006D400FFF0E20000BDE63006002942561676256F00761BFFF0E20000BDE63006002942D5
:2006E400561676256F00761BFFF0E20000BDE63006002942561676256F00761BFFF0E20002
:2006F40000BDE63006002942561676256F00761BFFF0E20000BDE63006002942561676257F
:200704006F00761BFFF0E20000BDE63006002942561676256F00761BFFF0E20000BDE63015
:2007140006002942561676256F00761BFFF0E20000BDE63006002942561676256F00761B31
:20072400FFF0E20000BDE63006002942561676256F00761BFFF0E20000BDE6300600294284
:20073400561676256F00761BFFF0E20000BDE63006002942561676256F00761BFFF0E200B1
:2007440000BDE63006002942561676256F00761BFFF0E20000BDE63006002942561676252E
:200754006F00761BFFF0E20000BDE63006002942561676256F00761BFFF0E20000BDE630C5
:2007640006002942561676256F00761BFFF0E20000BDE63006002942561676256F00761BE1
:20077400FFF0E20000BDE63006002942561676256F00761BFFF0E20000BDE6300600294234
:20078400561676256F00761BFFF0E20000BDE63006002942561676256F00761BFFF0E20061
:2007940000BDE63006002942561676256F00761BFFF0E20000BDE6300600294256167625DE
:2007A4006F00761BFFF0E20000BDE63006002942561676256F00761BFFF0E20000BDE63075
:2007B40006002942561676256F00761BFFF0E20000BDE63006002942561676256F00761B91
:2007C400FFF0E20000BDE63006002942561676256F00761BFFF0E20000BDE63006002942E4
:2007D400561676256F00761BFFF0E20000BDE63006002942561676256F00761BFFF0E20011
:2007E40000BDE63006002942561676256F00761BFFF0E20000BDE63006002942561676258E
:2007F4006F00761BFFF0E20000BDE63006002942561676256F00761BFFF0E20000BDE63025
:2008040006002942561676256F00761BFFF0E20000BDE63006002942561676256F00761B40
:20081400FFF0E20000BDE63006002942561676256F00761BFFF0E20000BDE6300600294293
:20082400561676256F00761BFFF0E20000BDE63006002942561676256F00761BFFF0E200C0
:2008340000BDE63006002942561676256F00761BFFF0E20000BDE63006002942561676253D
:200844006F00761BFFF0E20000BDE63006002942561676256F00761BFFF0E20000BDE630D4
:2008540006002942561676256F00761BFFF0E20000BDE63006002942561676256F00761BF0
:20086400FFF0E20000BDE63006002942561676256F00761BFFF0E20000BDE6300600294243
:20087400561676256F00761BFFF0E20000BDE63006002942561676256F00761BFFF0E20070
:2008840000BDE63006002942561676256F00761BFFF0E20000BDE6300600294256167625ED
:200894006F00761BFFF0E20000BDE63006002942561676256F00761BFFF0E20000BDE63084
:2008A40006002942561676256F00761BFFF0E20000BDE63006002942561676256F00761BA0
:2008B400FFF0E20000BDE63006002942561676256F00761BFFF0E20000BDE63006002942F3
:2008C400561676256F00761BFFF0E20000BDE63006002942561676256F00761BFFF0E20020
:2008D40000BDE63006002942561676256F00761BFFF0E20000BDE63006002942561676259D
:2008E4006F00761BFFF0E20000BDE63006002942561676256F00761BFFF0E20000BDE63034
:2008F40006002942561676256F00761BFFF0E20000BDE63006002942561676256F00761B50
:20090400FFF0E20000BDE63006002942561676256F00761BFFF0E20000BDE63006002942A2
:20091400561676256F00761BFFF0E20000BDE63006002942561676256F00761BFFF0E200CF
:2009240000BDE63006002942561676256F00761BFFF0E20000BDE63006002942561676254C
:200934006F00761BFFF0E20000BDE63006002942561676256F00761BFFF0E20000BDE630E3
:2009440006002942561676256F00761BFFF0E20000BDE63006002942561676256F00761BFF
:20095400FFF0E20000BDE63006002942561676256F00761BFFF0E20000BDE6300600294252
:20096400561676256F00761BFFF0E20000BDE63006002942561676256F00761BFFF0E2007F
:2009740000BDE63006002942561676256F00761BFFF0E20000BDE6300600294256167625FC
:200984006F00761BFFF0E20000BDE63006002942561676256F00761BFFF0E20000BDE63093
:2009940006002942561676256F00761BFFF0E20000BDE63006002942561676256F00761BAF
:2009A400FFF0E20000BDE63006002942561676256F00761BFFF0E20000BDE6300600294202
:2009B400561676256F00761BFFF0E20000BDE63006002942561676256F00761BFFF0E2002F
:2009C40000BDE63006002942561676256F00761BFFF0E20000BDE6300600294256167625AC
:2009D4006F00761BFFF0E20000BDE63006002942561676256F00761BFFF0E20000BDE63043
:2009E40006002942561676256F00761BFFF0E20000BDE63006002942561676256F00761B5F
:2009F400FFF0E20000BDE63006002942561676256F00761BFFF0E20000BDE63006002942B2
:200A0400561676256F00761BFFF0E20000BDE63006002942561676256F00761BFFF0E200DE
:200A140000BDE63006002942561676256F00761BFFF0E20000BDE63006002942561676255B
:200A24006F00761BFFF0E20000BDE63006002942561676256F00761BFFF0E20000BDE630F2
:200A340006002942561676256F00761BFFF0E20000BDE63006002942561676256F00761B0E
:200A4400FFF0E20000BDE63006002942561676256F00761BFFF0E20000BDE6300600294261
:200A5400561676256F00761BFFF0E20000BDE63006002942561676256F00761BFFF0E2008E
:200A640000BDE63006002942561676256F00761BFFF0E20000BDE63006002942561676250B
:200A74006F00761BFFF0E20000BDE63006002942561676256F00761BFFF0E20000BDE630A2
:200A840006002942561676256F00761BFFF0E20000BDE63006002942561676256F00761BBE
:200A9400FFF0E20000BDE63006002942561676256F00761BFFF0E20000BDE6300600294211
:200AA400561676256F00761BFFF0E20000BDE63006002942561676256F00761BFFF0E2003E
:200AB40000BDE63006002942561676256F00761BFFF0E20000BDE6300600294256167625BB
:200AC4006F00761BFFF0E20000BDE63006002942561676256F00761BFFF0E20000BDE63052
:200AD40006002942561676256F00761BFFF0E20000BDE63006002942561676256F00761B6E
:200AE400FFF0E20000BDE63006002942561676256F00761BFFF0E20000BDE63006002942C1
:200AF400561676256F00761BFFF0E20000BDE63006002942561676256F00761BFFF0E200EE
:200B040000BDE63006002942561676256F00761BFFF0E20000BDE63006002942561676256A
:200B14006F00761BFFF0E20000BDE63006002942561676256F00761BFFF0E20000BDE63001
:200B240006002942561676256F00761BFFF0E20000BDE63006002942561676256F00761B1D
:200B3400FFF0E20000BDE63006002942561676256F00761BFFF0E20000BDE6300600294270
:200B4400561676256F00761BFFF0E20000BDE63006002942561676256F00761BFFF0E2009D
:200B540000BDE630060029425616E28000BEFFF176177602761BFFF0E20000BDE630060081
:200B64002942561676256F00FE04761F0105E2C40123E801E118761F0301E2AF0200E70034
:200B74000051E80EB850E70000407700E68E0000761F0105E213002B284437BD284335063F
:200B8400E80265F0E2AF0144E80DE100E70000407700E2030044E8B092007700E2030044D5
:200B9400E851E0007700E2030044E68E00007700E2130022E80214B0E2030044E2C40123E5
:200BA4007700E70000087700E2030044E801E118E80EB850E2AF0144E70000407700E203F2
:200BB4000044E2C4002DE2AF0144E72000087700E2030044E851E0007700E2030044E68E58
:200BC40000007700E213002C761F030106001E44761F0105E2C40123E2AF0044E70000084F
:200BD4007700E2030044E801E118E80EB850E2AF0144E70000407700E2030044E2C4002B13
:200BE400E2AF0144E72000087700E2030044E851E0007700E2030044E68E00007700E213D3
:200BF400002A761F0301E2AF0102E2AF0000E72000087700E2030042761F0109E801E118CB
:200C0400E2C40123E2AF0242E7000051E80EB850E70000407700E68E00007700E213002B52
:200C1400284437BD28433506E80265F0E80DE100E2AF0144E70000407700E2030044E8B070
:200C240092007700E2030044E851E0007700E2030044E68E00007700E2130022E80214B015
:200C3400E2030044E2C401237700E70000087700E2030044E801E118E80EB850E2AF0144F1
:200C4400E70000407700E2030044E2C4002DE2AF0144E72000087700E2030044E851E00058
:200C54007700E2030044E68E00007700E213002C06421E44E2C40123E2AF0044E70000089C
:200C64007700E2030044E801E118E80EB850E2AF0144E70000407700E2030044E2C4002B82
:200C7400E2AF0144E72000087700E2030044E851E0007700E2030044E68E00007700E21342
:200C8400002AFE840006FE22761F0104CC00C0005036960018010FFF761F010556BF322310
:200C9400062091001E20761F01042B041808C3A01809C3A0761F010556BF0C2B56BF252D2D
:200CA40056BF192F56BF193156BF9600280209061807FF3F1809FFF0761F0104CC0C700041
:200CB4001AA9800B960C761F0105CC11C00050029611CC13C00050029613761F0106922413
:200CC40090801AA9110D9624CC26FFCF50309626CC30F0F01AA901019630CC2EFFF05001C8
:200CD400962E761F01041814F8007622761F01062B00CC04F0001AA90FFF9604180DFF814F
:200CE400761F0107CC03FCF0500496031804FCF092002B00761F01061802F000761F0107A3
:200CF400CC07FFC0501096072B092B0B1808FFFE761F0104CC20FF5F50209620CC38FFF0CD
:200D040050019638CC38FF0F50109638CC38F0FF1AA901009638CC380FFF1AA91000963838
:200D1400CC39FFF050019639182DFF8D761A56BF01502B5156BF03522B532B5456BF015596
:200D240056BF015656BF01572B582B592B5A2B5B56BF035C2B5D2B5E2B5F56BF046056BF27
:200D34000461FF697648163428580100285301002859010093532F542758805592569741CE
:200D440088575C5C5742935A3F432F597F44275E805F9645925B7E46885D97479360964821
:200D540092617C498F004100574A3F4B7F4C7E4D974E964F5D529351925076481551761F3E
:200D64000108CC00C0005036960018010FFF761F010956BF3223062091001E20761F0108FB
:200D74002B041808C3A01809C3A0761F010956BF0C2B56BF252D56BF192F56BF193156BF06
:200D84009600280209061807FF3F1809FFF0761F0108CC0C70001AA9800B960C761F01099E
:200D9400CC11C00050029611CC13C00050029613761F010A922490801AA9110D9624CC261C
:200DA400FFCF50309626CC30F0F01AA901019630CC2EFFF05001962E761F01081814F800FE
:200DB4007622761F010A2B00CC04F0001AA90FFF9604180DFF81761F010BCC03FCF050043C
:200DC40096031804FCF092002B00761F010A1802F000761F010BCC07FFC0501096072B09A3
:200DD4002B0B1808FFFE761F0108CC20FF5F50209620CC38FFF050029638CC38FF0F502009
:200DE4009638CC38F0FF1AA902009638CC380FFF1AA920009638CC39FFF050029639182D7E
:200DF400FF8D761A56BF01502B5156BF03522B532B5456BF015556BF015656BF01572B58B3
:200E04002B592B5A2B5B56BF035C2B5D2B5E2B5F56BF046056BF0461285801002853010040
:200E1400285901009353FF692F54275880559741885792565C5C5742935A3F432F59275EAB
:200E24007F44805F9645925B7E46885D97479360964892617C498F004200574A3F4B7F4C6D
:200E34007E4D974E964F5D529351925076481551761F0100CC00C0005012960018013FFFFF
:200E4400761F010156BF6423062091001E20761F01002B041808C3A01809C3A0761F010103
:200E540056BF322B56BF322D56BF322F56BF323156BF9600280209061807FF3F1809FFF059
:200E6400761F0100CC0C7000500B960C761F0101CC11C00050019611CC13C00050019613CE
:200E7400761F0102922490801AA911019624CC26FFCF50309626CC30F0F01AA9010196300E
:200E8400CC2EFFF05001962E761F01001814F8007622761F01022B00CC04F0001AA90FFFAA
:200E94009604180DFF81761F0103CC03FCF0500496031804FCF092002B00761F0102180247
:200EA400F000761F0103CC07FFC0501096072B092B0B1808FFFE761F0100CC20FF5F50203F
:200EB40096201838FFF01838FF0F1838F0FF18380FFF1839FFF0182DFF8D761AFF69FEA285
:200EC400000600069A328F0816539B01764800549A32764800669A319B018F0816A6764820
:200ED40000549A317648006600069A327648029F9A317648029F000676480F8E9A01D40090
:200EE400D5019B0A76480F9C76C702823E6776480EEE00067622761F174C1A2200011A22DB
:200EF40000041A2200081A2200101A2200201A2300011A2300041A2600011A2600021A26AC
:200F040000041A2600081A2600101A2600201A2600401A2600801A2800011A2800021A28C8
:200F140000041A2800081A2800101A2800201A2800401A2A00011A2A00021A2E00011A301B
:200F240000011A3000021A3200011A3200021A3400011A3600011A3600021A3C00011A3C26
:200F340000021A3C00041A3E00011A3E00021A3E00041A3E00081A3E00101A3E00201A3E9A
:200F44000040761F174D1A0000011A0000021A0000041A0000081A0000101A0000201A005F
:200F540000401A0600021A0600011A0300011A0300021A0800011A0A00011A0C0001761ABE
:200F6400FF69000676220200761F174C1E221E261E281E2A1E2E1E301E321E341E361E3C71
:200F74001E3E761F174D1E001E021E061E081E0A1E0C761AFF6900067622761F01C0CC2551
:200F8400FF0050559625CC25FF0050AA9625761AFF690006FE027622761F01C0922990070B
:200F94009641924150689629761AFF69FE820006FE0E7D4C7C4B974A9649761F17489208B4
:200FA40090030EA91EA69249900380A906A60FA76021CC320002FFC00EA91EA692499004FC
:200FB400FFC180A906A60FA76015884A9214907F0EA90FA6600F884BCC140300FFC70EA9C8
:200FC4000FA66008884C9222903F0EA90FA6FFE100A0920890030EA91EA69249900380A96E
:200FD40006A60FA7601ACC320002FFC00EA91EA692499004FFC180A906A60FA761166F0D3A
:200FE4007648108F6F127648109B6F0F764810C46F0C764810E76F09924961F6520161F711
:200FF400520261EF520561F67622761F1748884A9214907F0EA90FA66008884BCC140300EE
:20100400FFC70EA90FA66141180EFFFDF63C77001822FFC05603084BCA4A0EA91E46020057
:201014001E4402640F4469337622761F1748180EFFFEF63C770006461E141A0E00018F0077
:2010240007D0A842921690010EA91E486F08921690010EA91E4802015641004202010F4892
:201034006103064260F5761A92495C4B934AFF6976481117964D924D600A020107441E4482
:2010440002640F4466D26F0356BF014D924D61207622924C523F610A761F17489C01CD2274
:20105400FFC0903FCAA896226F08761F1748903FCD22FFC0CAA896221A0E0002F6647700B7
:20106400924CCD22FFC0903FCAA89622761AFE8EFF69000676220200761F17C019011E100F
:20107400020019011E12020019011E14020019011E160200761F17C119011E10020019019F
:201084001E12020019011E14020019011E16761A9A00FF6900067622761F1748CC08FFFC8B
:20109400500296081A320001761AFF6900067622761F17481808FFF7F6FA7700F632770059
:2010A4001808FFFC1A320001761AFF690006FE022B41FF2007D07640A0486F031A31000108
:2010B400FF2001FF761F17480F3068F9FF2003FF0F3060FD0A419241520468F3FE82000657
:2010C4007622761F17481832FFFE1832FFFD761AFF69764810AB7622CC08FFFC500196082C
:2010D400761A6F0E76221A2E0002761AFF69764810AB7622CC08FFFC50019608761A402E48
:2010E4006DF2FF6900067622761F17481832FFFE1A320002761AFF69764810AB7622CC0821
:2010F400FFFC50019608761A402E6C027625FF6900067622761F174D1836FFFC761A76217C
:20110400FF6900067622761F174DCC36FFFC50029636761F1748180EFFFD180EFFFE761AE8
:201114007621FF690006FE0C7C4B974A964902581E4202181E462D4A35640EA91E446F0D48
:20112400021907441E446F10023207441E446F0C024B07441E446F08924B520161F25202C0
:2011340061F4520361F67622761F174D1A0C0001761F179C1A1400011A140002CC00FFF080
:2011440050059600CC00FF0F50509600CC000FFF1AA9500096006F0ECC28FFF0500196289E
:201154006F11CC28FFF0500296286F0C1828FFF06F09924961F7520161FA520261EE52050B
:2011640061F6CC240FFF1AA9A00096241824FFF08F05E7080642A3C4910F18AB000018AA77
:20117400FFF0CAABCBAA1EC49246960C06448F05E710910FA3C418AB000018AAFFF0CAAB61
:20118400CBAA1EC4CC00F0FF1AA90A009600CC00FF0F50A09600CC000FFF1AA9A0009600A3
:20119400CC00FFF0500A9600761A06441E488F05E7146F0402015641004806C49B00900374
:2011A400FF586003064860F706C428AB00022BAA9B009003BE00B6000FAB600E8F05E718FB
:2011B40006C4600A8F05E71C06C460068F05E72006C46002B60193A76102BE0192A6FE8C84
:2011C400FF690006FE042B43FFEF01937622761F01002B212823FFFF1A2100081A2100204A
:2011D4001A218000761A761F03002B312B322B3356BF0134FFEF01947622761F0100922153
:2011E4002B211821FC3F56BF50221A2100081A2100201A21800077007700770077007700F8
:2011F40077007700770077007700770077007700770077007700770077007700770077006B
:2012040077007700761F03009231614A3B018F40C01856030131560100A5022D07C58AA93E
:2012140092C49635560301318F40C018560100A5026C07C58AA992C49636560301318F00C2
:20122400C018560100A4022007C48AA918C4FFFC560301318F00C018560100A4022007C406
:201234008AA91AC40018761F0100CD21FC3F761F030092319CFF761F01005008900FFF85AB
:20124400CAA89621761F03008F40C01856030131560100A5026C07C58AA928C45000761F5D
:2012540001002B242B251A210004761A761F030056BF0234FFEF01147622761F0100442192
:201264006D241821FFFB9224761F0300963256BF0334761F010018217FFF77007700770092
:201274007700770077007700770077007700770077007700770077007700770077007700EA
:201284007700770077007700761AFFEF00E97622761F010092212B211821FC3F56BFC82267
:201294001A2100081A2100201A21800077007700770077007700770077007700770077003B
:2012A4007700770077007700770077007700770077007700770077007700761F03009231C4
:2012B400610D3B018F40C01856030131560100A5026C07C58AA928C4C800761F01002B243C
:2012C4002B251A210004761A761F030056BF0434FFEF00A67622761F010044216D24182115
:2012D400FFFB9224761F0300963356BF0534761F010018217FFF77007700770077007700FB
:2012E40077007700770077007700770077007700770077007700770077007700770077007A
:2012F40077007700761A6F7B7622E2C40233E801FC03E2C40032E801FC01E274009AE27413
:201304000008770077007700E8023BFBE7200010E80FF803E70000187700E203004256BF81
:20131400F044E2C4014477007700E274000877008F00C0283B01A8A9E88FC0008131E68C78
:2013240000008AA9E21300C4761F03009228761F0301960B761F030056BF013452FF650495
:2013340056BF02436F09761F03009228761F0100962656BF0143761F03009231611756039E
:2013440001318F40C018560100A58835022D07C58AA97EC4560301318F40C018560100A559
:201354008836026C07C58AA97EC4761A6F18761F030092345203620E5203FFE1FF2A520022
:20136400FFE1FE665201FFE1FE795202FFE1FEF66F065204FFE1FF60520561879243FF69CD
:20137400FE84000628A900508F48000428A800008F00A000764819AC28A9000028A80000B2
:201384008F40A0008F00A000764819AC7640A0000006FE0C7D4C7C4B974A964902581E42B8
:2013940002181E465C4C2D4A3564DC010EA9F60F1FA40EA91E446F0D021907441E446F10CB
:2013A400023207441E446F0C024B07441E446F08924B520161F2520261F4520361F67622EC
:2013B400761F174D1A0C0001761F179C1A1400011A140002CC00FFF050059600CC00FF0FD2
:2013C40050509600CC000FFF1AA9500096006F0ECC28FFF0500196286F11CC28FFF050022C
:2013D40096286F0C1828FFF06F09924961F7520161FA520261EE520561F6CC240FFF1AA926
:2013E400A00096241824FFF08F05E7080642A3C4910F18AB000018AAFFF0CAABCBAA1EC452
:2013F4009246960C06448F05E710910FA3C418AB000018AAFFF0CAABCBAA1EC4CC00F0FF88
:201404001AA90A009600CC00FF0F50A09600CC000FFF1AA9A0009600CC00FFF0500A960087
:20141400761A06441E488F05E7146F0402015641004806C49B009003FF586003064860F73D
:2014240006C428AB00022BAA9B009003BE00B6000FAB60128F05E71806C4910FFF58600CA6
:20143400761F179C921C60088F05E72006C4910FFF586002B60193A76102BE0192A6FE8CA7
:20144400FF690006FE0E7D4C7C4B974A9649761F1748920890030EA91EA69249900380A98B
:2014540006A60FA76027CC320002FFC00EA91EA692499004FFC180A906A60FA7601B884A4E
:201464009214907F0EA90FA66015884BCC140300FFC70EA90FA6600E884C921590070EA9B3
:201474000FA6600888519222903F0EA90FA6FFE100A7920890030EA91EA69249900380A9AD
:2014840006A60FA7601ACC320002FFC00EA91EA692499004FFC180A906A60FA761166F0D85
:201494007648108F6F127648109B6F0F764810C46F0C764810E76F09924961F6520161F75C
:2014A400520261EF520561F67622761F1748884A9214907F0EA90FA6600E884BCC14030033
:2014B400FFC70EA90FA66007884C921590070EA90FA66142180EFFFD1822FFC02901254CA8
:2014C4001EA75603084B88A906A7AFA6AF4A1E4602001E4402640F446931761F1748180E36
:2014D400FFFD06461E141A0E00018F0007D0A842921690010EA91E486F08921690010EA948
:2014E4001E4802015641004202010F486103064260F5761A92495C4B5D4C934AFF6976488D
:2014F400138D964D924D600A020107441E4402640F4466D46F0356BF014D924D612076229C
:201504009251523F610A761F17489C01CD22FFC0903FCAA896226F08761F1748903FCD2287
:20151400FFC0CAA896221A0E0002F66477009251CD22FFC0903FCAA89622761AFE8EFF69C5
:2015240000067622761F01F01820FFFCCC06FFFC500196061820FFF3CC06FFF350049606B8
:201534001820FFCFCC06FFCF501096061820FF3FCC06FF3F504096061820FCFFCC06FCFF43
:201544001AA9010096061820F3FFCC06F3FF1AA904009606761AFF690006FE067D45974437
:201554009643A8427622022007428AA992C4022007428AA99245900388A9CDC4FFFC99A624
:20156400022007428AA97EC4022007428AA992449001FF8188A9CDC4FFFB99A6022007429C
:201574008AA97EC4022007428AA992439003FF8288A9CDC4FFE799A6022007428AA97EC494
:201584008849026A07428AA97EC4884A026007428AA97EC4884B026207428AA97EC4022D36
:2015940007428AA9924C900188A9CDC4FFFE99A6022D07428AA97EC4022007428AA9924DE4
:2015A4009001FF8588A9CDC4FFBF99A6022007428AA97EC4022D07428AA9924E9001FF81D7
:2015B40088A9CDC4FFFB99A6022D07428AA97EC4022007428AA992519003FF8788A9CDC4D3
:2015C400FCFF99A6022007428AA97EC4022007428AA992509001FF8988A9CDC4FBFF99A659
:2015D400022007428AA97EC4022007428AA9924F9003FF8A88A9CDC4E7FF99A6022007422A
:2015E4008AA97EC48852026C07428AA97EC4025007428AA9CCC401FF80A956030953CAA7BF
:2015F40088A9025007428AA97EC4025207428AA9CCC401FF80A956030954CAA788A9025261
:2016040007428AA97EC4022707428AA99255900388A9CDC4FFFC99A6022707428AA97EC406
:20161400022707428AA992569003FF8188A9CDC4FFF399A6022707428AA97EC402270742CA
:201624008AA992579003FF8388A9CDC4FFCF99A6022707428AA97EC4761AFF69FE8600063D
:20163400764811C652006005764811C6520061FD00067622761F174C1A230004761AFF6936
:2016440000067622761F01E51801E7FF1A0000071A0000381A01E000761AFF690006761B71
:20165400FFF00005ABBDA8BDA0BDC2BDC3BDE20000BDE20300BDE20301BDE20302BDE203EC
:2016640003BDE6300600FE02FF6929425616761F0033922696411826FFF9F6057700762FA7
:20167400FFFB56BF04217623000429109B00761F010A92289001520160029B0153006105BC
:2016840076221A2A0001761A3B109241761F00339626FF699A3276480698FE82E2AF03BED5
:20169400E2AF02BEE2AF01BEE2AF00BEE28000BEC5BEC4BE83BE8ABE87BE00033B30FFF1F5
:2016A40076177602761BFFF00005ABBDA8BDA0BDC2BDC3BDE20000BDE20300BDE20301BD8F
:2016B400E20302BDE20303BDE6300600FE02FF6929425616761F0033922696411826FFF9E5
:2016C400F6057700762FFFFB56BF04217623000429109B00761F01069228900152016002AE
:2016D4009B015300610576221A2A0001761A3B109241761F00339626FF699A317648069803
:2016E400FE82E2AF03BEE2AF02BEE2AF01BEE2AF00BEE28000BEC5BEC4BE83BE8ABE87BE31
:2016F40000033B30FFF1761776028F000C00761F0300A8000200761F003019011E022B0666
:201704002B071A0400101A0400200200761F03001E028F000C08A8088F000C10A810761F22
:20171400003019011E0A761F0030020019011E12761F00302B0E2B0F761F00302B162B17B2
:20172400761F00301A0C0010761F00301A140010761F00301A0C0020761F00301A14002089
:20173400761F030002001E0A1E120006FE08E2030146E2030044A84206441EE48A420646F4
:201744001EF4E2AF0044E2AF0146E70000087700E68800007700E20300488A428AC40648E6
:201754001ED48A428AC42BF48A428AC42BFC8A428AC41AE400108A428AC41AE400208A42DD
:201764008AC418E4FBFF8A428AC418E4F7FF8A428AC41AE440008A4202001ED4FE88000671
:20177400FE0276480F8E7622761F174C1A2200041A2E0001761F174D1A0400011A040002A9
:201784001A0400041A040008761A9A01D400D5009B0AFF6956BF0141764814467622761F80
:20179400174C1A2200081A2200101A2200201A230001761A7622761F1748182CFFF8761AC1
:2017A4003B1076260000762F0000FF697648193A76481962764816F9764815257622761FF5
:2017B400174C1A2600011A2600021A2600041823FFFB761AFF69764816457622761F01F087
:2017C40002001E021E04761F01F11E021E04761F01F01815FFBF1815FF7F761AFF69FE8264
:2017D400000628AD0400FF69561F5616561AE61002002940761F00002902761B76481A00D3
:2017E40052006142762228A91BC428A800080901611B76C81BC429046F0F9B0024A9DF013A
:2017F4006C04290424A8DF011EA6F7A1248606A781A109011EA724A96303FF5C3B0459A919
:20180400DF010009FFEC28A9FFFF28A8FFFF090161058F3FFFFF76481988761A76481A024E
:2018140028A9FFFF28A8FFFF0901610E76FFFFFF6F06DF01C3BD1EA73E67C5BE24A9DF01BC
:2018240024A8FF5860F7764819DD76481913FE04E2030144E2030042E8024BA0E2AF014290
:201834008F00C000E8092000E30208447648173A761F00301804FFEF7622761F00358F082C
:2018440018C7A80C761A761F00331A22004076230001FF69FE8400063B10761F00331A2244
:2018540000402910FF690006FE022B413B109A00761F003346226C029A0196411822FFBF34
:20186400F6057700762FFFFE56BF01212910FF69FE820006FE0296419241610476481850BD
:201874006F0376481858FE820006761F030192050A055200610556BF01040B056F0A7648D6
:20188400185076480B6876481858761F03010B050006FE042842CCCD28413E4CE802164096
:20189400E2030044761F03012B062B07764813767648177476480C87764819D5E2AF0042AF
:2018A400E2AF01447648182B761F030156BF0107764818507648163D76480EC6764819C92E
:2018B400761F03019207610776481634761F0301920760FB76480ED976480EC5764819D503
:2018C4009A00FE840006761BFFF00005ABBDA8BDA0BDC2BDC3BDE20000BDE20300BDE2030E
:2018D40001BDE20302BDE20303BDE6300600FE02FF6929425616761F003392229641922687
:2018E40096421822FFBF1826FFF9F6057700762FFFFA56BF0521762300012910FF6976489A
:2018F40018793B10761F00339241962292429626FE82E2AF03BEE2AF02BEE2AF01BEE2AF11
:2019040000BEE28000BEC5BEC4BE83BE8ABE87BE00033B30FFF17617760277006F00B2BD5A
:20191400761F030059A99238610D28ABFFFF28AAFFFF28A9FFFF28A8FFFF0FAB6103767F90
:20192400FFFF761F0300C53E3E67761F0300063C61041EA792A13E67761F0300063A61034D
:201934001EA73E67764819118BBE00063B10761F00331820FFFE2B222B242B262B282B2A15
:201944002B2C2B2E2B302B322B342B362B382B232B252B272B292B2B2B2D2B2F2B312B33F2
:201954002B352B372B39FF690006761F00331A2000012821FFFF2910FF690006FE068F0853
:201964001A04A8428F000D00A844020607421E42020607441E4476222B45924552DD670DEB
:2019740083448A42A0A9C4840902A8421E44C2C50A45924552DD68F5761A761F00331A200D
:201984000001FF69FE860006B2BDAABDA2BDFE0882A4D1005ACB6F155CAD2901560303A145
:2019940007A3DC8809025CA483A90208764819AC064261068A448346764819AC5ACBD90199
:2019A40092A254A166EAFE8882BE86BE8BBE00065200A8ABC5A4610788A9DE815C857C8767
:2019B400000EFFFE88A90FA6610F5300610D9DFF5CA876BFFFFE92859687000EFFFE9285C9
:2019C4009687000CFFF8A9A40006761F0301920A60047608293092BE0B0A920A63022B0A85
:2019D400000676083B3092BE761F03019001720A0006020028ABFFFF28AAFFFF19010FAB91
:2019E40060049A00D4006F05A9A492C4A9A4DC027648188D0006761F0301A8080006761F82
:1E19F4000300A83E00060006561F7622B9C028290068761A004817D59A010006000636
:201A04000B4700080B4700080B4700080B4700080B4700080B4700080B4700080B470008F2
:201A14000B4700080B4700080B4700080B4700080B47000806B5000806BF000806C9000889
:201A240006D3000806DD000806E7000806F1000806FB000807050008070F0008071900087F
:201A340007230008072D00080737000807410008074B000807550008075F000807690008EA
:201A440007730008077D00080787000807910008079B00080B47000807A5000807AF0008C8
:201A540007B9000807C3000807CD000807D7000807E1000807EB000807F5000807FF00081A
:201A64000809000808130008081D00080827000808310008083B000808450008084F000882
:201A74000859000808630008086D00080877000808810008088B0008089500080B47000847
:201A840008B3000808BD00080B4700080B4700080B4700080B4700080B4700080B47000896
:201A940008C7000808D1000808DB000808E500080B4700080B4700080B4700080B47000832
:201AA40008EF000808F9000809030008090D000809170008092100080B4700080B470008DA
:201AB400092B0008093500080B4700080B4700080B4700080B4700080B4700080B47000874
:201AC400093F00080949000809530008095D00080967000809710008097B0008098500086A
:201AD400098F00080999000809A3000809AD000809B7000809C1000809CB000809D50008DA
:201AE40009DF000809E9000809F3000809FD00080A0700080A1100080A1B00080A25000846
:201AF4000A2F00080A3900080A4300080B4700080B4700080B4700080A4D00080A5700081B
:201B04000B4700080B4700080B4700080B4700080B4700080B4700080B4700080B470008F1
:201B14000B4700080B4700080B4700080B4700080B4700080B4700080B4700080B470008E1
:201B24000B4700080B4700080B4700080B4700080B4700080B4700080B4700080B470008D1
:201B34000B4700080B4700080B4700080B4700080B470008089F000808A900080B4700080D
:201B44000A6100080B4700080B4700080B4700080A6B00080A7500080A7F00080A890008D0
:201B54000B4700080B4700080B4700080B4700080B4700080B4700080B4700080B470008A1
:201B64000B4700080B4700080A9300080A9D00080AA700080AB100080ABB00080B470008B6
:201B74000AC500080ACF00080B4700080B4700080AD900080B4700080B4700080B470008EC
:201B84000B4700080B4700080B4700080B4700080B4700080B4700080B4700080B47000871
:201B94000AE300080AED00080AF700080B0100080B4700080B4700080B4700080B470008B8
:201BA4000B4700080B4700080B4700080B4700080B4700080B4700080B4700080B47000851
:201BB4000B4700080B0B00080B1500080B1F00080B2900080B4700080B3300080B3D000813
:201BC400FFF0C0180000400000004100000042000000430000004400000045000000460065
:201BD400000047000000FFFFC03800000001FFFEC03A000000000000FFFEC03C00000000C3
:201BE4000000FFFFC04400000000FFFFC04500000000FFFCC0400000000041C8000042C8CE
:201BF400FFFEC03E000019F70008FFFEC048000019F70008FFFFC03700000000FFFFC04AA4
:101C040000000000FFFFC0340000000000000000DE
:00000001FF
